:020000040800F2
:10000000280400200D280008E9270008EB27000835
:10001000ED270008EF270008F12700080000000086
:10002000000000000000000000000000F3270008AE
:10003000F527000800000000F7270008F92700084E
:10004000292800082D280008312800083528000834
:10005000392800083D2800084128000845280008E4
:10006000492800084D280008512800085528000894
:10007000592800085D280008612800086528000844
:10008000692800086D2800087128000875280008F4
:10009000792800087D2800088128000885280008A4
:1000A000892800088D280008912800089528000854
:1000B000992800089D280008A1280008A528000804
:1000C000A9280008AD280008B1280008B5280008B4
:1000D000B9280008BD280008C1280008C528000864
:1000E000C9280008CD280008D1280008D528000814
:1000F000D9280008DD280008E1280008E5280008C4
:10010000E9280008ED280008F1280008F528000873
:10011000F9280008FD280008012900080529000821
:10012000092900080D2900081129000815290008CF
:100130001929000800000000000000001D29000827
:100140002129000825290008292900082D2900084F
:100150003129000835290008392900083D290008FF
:100160004129000845290008492900084D290008AF
:100170005129000855290008000000000000000077
:10018000592900085D2900082DE9F0439FB000BF00
:1001900066A6269CDFF80C8C02918DF83B4000216E
:1001A0000B914FF0FF37044691461D460AE019F8BF
:1001B000011B0298A0470028029000F0A4800B9831
:1001C000401C0B9099F8000050B12528EFD1002079
:1001D0000021059006910790089109900A9103E08B
:1001E0000B98A7E041F0010119F8010F2028F9D080
:1001F00023280CD02B2804D02D2805D0302809D056
:1002000083E041F00201EFE741F00401ECE741F047
:100210000801E9E741F01001E6E700200D900AE04F
:100220000D98404505DA00EB800302EB4302303ABB
:100230000D9209F1010999F80020A2F130000A2875
:10024000EED399F800002E2818BF0C9726D119F884
:10025000010F2A2808D12868286009F1010950F8FF
:10026000042B28600C9219E02D280CBF19F8010B03
:10027000002000220C920BE040B90C9A424505DAAE
:1002800002EB820203EB4203303B0C9309F10109BC
:1002900099F80030A3F130020A2AEDD3ADF83810F6
:1002A000304699F8001000F027FF08B119F8010B4B
:1002B0008DF83A009DF83A00682804BF99F80010BC
:1002C000682903D162208DF83A0008E06C2804BF49
:1002D00099F800006C2804D171218DF83A1009F1C9
:1002E000010910A804902A4619F8013B69462046E6
:1002F00000F060F838B910AA6946204600F0C2F94B
:1003000000287FF55FAF384614E02A2885D12A6897
:100310002A6052F8040B2A6000280D9003D5404251
:100320000D9041F0040109F101098AE7686A6C74D3
:100330007A4C00001FB0BDE8F083622820D0682806
:1003400011D06A2803D06C2827D0712825D10868DD
:10035000C01D20F007000860D0E9002308300860C5
:10036000194610467047002A0A680A60106803D0D0
:10037000121D0A6000B217E0121D0A6080B217E079
:10038000002A0A680A60106803D0121D0A6040B291
:100390000AE0121D0A60C0B20AE0002A0A680A6078
:1003A000106803D0121D0A60C1177047121D0A6041
:1003B000002170477CB50D4611461C462E69B4F1EC
:1003C000250200F04D811C3A00F08680121F022A9F
:1003D00040F282800E3A00F00781521F5AD0093A4B
:1003E0007AD0921E16D0521E35D0521E022A73D9D0
:1003F000121F30D0521F00F09A80521E4AD0521E57
:1004000000F0E480D21E00F0FD80921E42D0D21E89
:1004100040D02BE195F83A206C2A09D06869421C3B
:100420006A610A680A6052F8043B0A60335427E1A3
:100430000A680A6052F8043B0A60002100930191A7
:100440004FF0FF322A6329466A4600F0A1F90028DE
:1004500040F1168101E195F83A000122FFF76DFFA6
:10046000C5E900010023994204DA6869411C696109
:100470002D210DE0288F810704D56869411C696131
:100480002B2105E0C00722D56869411C6961202144
:1004900031541CE095F83A000022FFF74EFFC5E901
:1004A000000195F83800010711D5D5E90023002097
:1004B000834208BF82420AD044F02000782806D147
:1004C000686930213154401C411C69613454214613
:1004D00068693044E86083E00868C01D20F00700C8
:1004E0000860D0E9002308300860C5E90023D5E999
:1004F0000001C80F04D06869411C69612D210DE01D
:10050000288F810704D56869411C69612B2105E0AA
:10051000C00704D56869411C6961202131546869AC
:100520003044E8602146284600F03DFAA8E005F195
:100530003A02507820B14FF0FF340FF6383070E0B7
:100540001078622808D0682824D06A2812D06C2835
:100550002ED071280ED02BE00A680A6052F8040BE6
:100560000A6020B94FF0FF340FF6203059E0E96AF5
:10057000017085E00A680A6052F8040B0A6020B92D
:100580004FF0FF340FF604304BE0EA6AD317C0E9AE
:10059000002375E00A680A6052F8040B0A6020B96B
:1005A0004FF0FF340FF6E4203BE0E96A018067E09A
:1005B0000A680A6052F8040B0A6020B94FF0FF3451
:1005C0000FF6C8202DE0E96A016059E00A680A6068
:1005D00052F8040B0A600021C5E90001EE607821A1
:1005E000284600F034F94BE06C2285F83A200B687D
:1005F0000B6053F8042B0B6052BB4FF0FF340FF627
:10060000C0200EE095F83A206C2AF0D00868086007
:1006100050F8044B0860EC603CB94FF0FF340FF623
:10062000842000F075FD201A76BD2E6B002E04D5B7
:10063000204600F08DFD044608E0324600212046A9
:1006400000F0A2FD002814BF041B3446AC6117E083
:10065000294600F09DF8002812D54FF0FF3076BDF6
:100660006869411C69612521315409E06969481CA8
:10067000686125227254210002D0411C6961345402
:10068000002076BD2DE9FC410F460646796B78695E
:10069000BC6A091A386A091AB869091A786A091A03
:1006A000F869091A97F838000C1B410790460FD4D7
:1006B0002021002C8DF800100ADD254601236A4612
:1006C0003946304600F0BEFC00285DD16D1EF5D1E4
:1006D0007B6942463946304600F0B4FC002853D1CD
:1006E00030208DF800003D6A002D09DD01236A46A7
:1006F0003946304600F0A6FC002845D16D1EF5D1E4
:10070000BB69FA683946304600F09CFC00283BD1B2
:1007100030208DF800007D6A002D08DD01236A4637
:100720003946304600F08EFC70BB6D1EF6D1F8687D
:10073000B969FB6942183946304600F083FC18BBA2
:1007400030208DF80000BD6A002D08DD01236A46C7
:100750003946304600F076FCB0B96D1EF6D197F8F8
:10076000380041070DD52021002C8DF8001008DD40
:1007700001236A463946304600F064FC20B9641E05
:10078000F6D10020BDE8F6814FF0FF30BDE8F681DC
:100790002DE9F8470D46A3B02F6B002F81469046F8
:1007A00048BF6FF0004700F01BFD696B40180FF663
:1007B0002C118128D1E90023CDE9012328BF4FF076
:1007C000FF303ED20024002F2FDDD8F8001001AA00
:1007D000684600F009FD0646002E35D4D8F8000022
:1007E00008B9761E30D4B7421FDB686930188128FB
:1007F0000AD30020686303AA29464846FFF742FF50
:10080000040012D40020686103A8D5F814A0324671
:100810006946504400F0EAFCB244C5F814A058F808
:10082000040B002818BFBF1BCDD12CB903AA294641
:100830004846FFF727FF044614B900206861686343
:10084000204624B0BDE8F0874FF0FF34F8E72DE9EB
:10085000FC4707468A463E69BAF16F0F08BF082475
:1008600005D04AF02001782914BF0A2410243C2521
:10087000D7E90023BAF1640F18BFBAF1690F9046A7
:10088000994606D100218B4203DAD8F1000869EBC2
:1008900049090020814508BF80451FD1386BE8B960
:1008A000082C4CD197F83800010748D530203B255B
:1008B00086F83B0043E000280ED597F8380000F09A
:1008C0001400102808D17A6B7869121A386A121A43
:1008D000511A0029C8BF3962BDE8F3878DF800A01E
:1008E000404649462246E31700F0D4FC3032D0B2ED
:1008F0006D1E3A28019504DB9DF80000A0F151011E
:100900008A187255404649462246E31700F0C2FC59
:10091000804689460020814508BF804503D0F8689D
:1009200071198842DCD3082C09D197F838000107E7
:1009300005D5715D302902D06D1E30207055C5F18E
:100940003C01B9617019F860386B8142B3DA411A21
:1009500039624FF6EF70398F01403987BDE8F38770
:100960002DE9D04306460F4614464FF00008DFF845
:10097000389412E0E00707D542464B4630463946E8
:1009800000F0A0FD06460F464046494642464B460B
:1009900000F098FD641080468946002CEAD130466C
:1009A0003946BDE8D0832DE9F34F054641F02004D8
:1009B0008DB0D5E90089612C02AE09D0286B0028E2
:1009C00048BF062003D408BF672C01D1012028634B
:1009D000D5E9002358004015401C0ED119030CD056
:1009E0000320A8619DF8380061381A2802D20FF25E
:1009F000F46111E00FF2F0610EE058004015401C68
:100A00000FD119030DD10320A8619DF8380061387A
:100A10001A2814D30FF2D861E868032200F0E6FB2D
:100A2000D2E1194621F00043B3F5801F10460DD2E4
:100A30000027BB4208BFBA42019703D111E00FF271
:100A4000AC61E9E701AA00F00FFE0AE0DFF85C7391
:100A500007EB1352DFF8583301921940DFF8543393
:100A60001943C5E90001612C0ED1E86830210170FD
:100A7000811CE9609DF8381061290CBF782158214C
:100A800041706869801C6861D5E900AB2BF00043B8
:100A900000202AF00002834204BF8242002300F0BB
:100AA0005A81612C40F0A980286B00284CBF21207E
:100AB000401C00904046009F7F1C494600220023B6
:100AC00000F00AFED94601988DF8082038BF89F059
:100AD0000049001F0190002FD0460DF1090040F39E
:100AE000498140F2FF71DFF8D0B20C9106464046D2
:100AF00049460022002300F007FE80F03A814800BA
:100B0000400D00F11C0210D0002A0EDD0C9882422C
:100B100005DB09F0004040EA0B01002013E0A44887
:100B2000084040EA025140460DE029F00043002011
:100B300028F00002834208BF82420FBF40461C22B9
:100B4000404600F0F9FD8046894600F093FEFF1F05
:100B5000002F044609DD00F0ABFE02460B4640467E
:100B6000494600F0B7FE80468946F01D072104E0A3
:100B700004F00F0200F8012D2411002C01DD491EA4
:100B8000F6D5491E5CBF002200F8012DF9D5ECE036
:100B90000020194602AA0A4400E05B1E12F801492F
:100BA000491E8442F9D00F2804D10DF10900425C9E
:100BB000521C4254002904D50198001D02AE5B1C52
:100BC0000190591E12D49DF838007218147804F15F
:100BD00030085FFA88F4392CC4BFA0F13A04A0446D
:100BE000491E02F80189F1D58DF83800286B0028DC
:100BF00040F1B080591E2963ACE0404649460022CE
:100C0000002300F069FD019938BF89F0004947F2DF
:100C100097504143694A91FBF2F20192D2F10702E7
:100C200004DD40464946FFF79BFE0AE052420020A1
:100C30006349FFF795FE02460B464046494600F0E1
:100C4000BBFE8046662C286BDFF878B106BF019F9B
:100C50000A3706273F18142FC8BF142730208DF8F5
:100C6000080089460DF1090000E03046002F34DD10
:100C700006464046494600F0C3FF01460A4606F1D3
:100C8000080304200A26B2FBF6F606EB860EA2EB5A
:100C90004E02303203F8012C0A22B6FBF2F202EBCC
:100CA000820EA6EB4E063036401E03F8026DE9D1E7
:100CB000083F002F03F10806D7DD084600F0B4FF17
:100CC00002460B464046494600F004FE00225B46C1
:100CD00000F0F8FB80468946CBE70DF10901401A88
:100CE0000DF1090604E00199491E401E0191761C90
:100CF00031783029F7D0662C02D10199491C03E0E4
:100D0000652C0CBF012100212B6BCB189842B8BF7A
:100D1000431E002B1ED4834204DAF05C3528A8BFA2
:100D2000392000DA30201946721E02EB010800E07B
:100D30005B1E18F80199491E8145F9D0392802D166
:100D4000705C401C7054002904D50198401C164664
:100D50005B1C0190019800B200901BB29DF8381006
:100D60003246284600F034F82EE0C61D002F3FF72B
:100D7000BEAE30460DF10901401A00990346884283
:100D8000C8BF0B46002B0DF109063FF52FAF83427C
:100D9000BFF6FEAE0DF10900C05C07287FF7F8AE84
:100DA0000F20F6E6CBCCCC0C0000244002FCFFFF69
:100DB000FFFF0F800000E03F0000F07FA0860100F1
:100DC0000000F03F84D797410FB0BDE8F08F0000DE
:100DD0002DE9FC43054683B01F46D5F83080002F2F
:100DE000164602DC5FF00107C2A68946BDF9304015
:100DF00049F02000662808BF641C17D0672840F01F
:100E0000888014F1040FC0F28A80444580F2878004
:100E100095F83800641C010702D44745B8BFB846AE
:100E200020B2B8EB000848BF4FF000080FFA84F971
:100E3000E868A969B9F1000F27DC4A1C3023435444
:100E4000B8F1000F03DC95F83800010703D5E86816
:100E50002E218154521C18EB090FB8BFC8F10004B1
:100E600024B260426862A044B845AA61B8BF474650
:100E7000E868AB693FB2EF613A463146184400F08A
:100E8000B5F9A8EB0700A862C5E022B29742084472
:100E900019DA3A46314600F0A9F9A8693818A9EBE1
:100EA0000707B8F1000FA8616F6203DC95F83810EE
:100EB0000A0705D5E9682E220A54E869401CE86152
:100EC000C5F82880A7E0314600F090F9A8693F1BDB
:100ED000B8F1000F484403DC95F838100A0703D531
:100EE000E9682E220A54401CA86138B28045E8689F
:100EF000AB69B8BF47463AB206EB0901184400F0A7
:100F000075F9A8693FB23818A8EB0707A8616F62A6
:100F100081E0B9F1610F16D14FF0700918E0474533
:100F200004DA95F838100A0758BFB846B8F1010836
:100F300048BF4FF00008B9F1670F14BF4FF04509E3
:100F40004FF0650904E0B9F1410F08BF4FF05009B7
:100F5000A969EB68481CA861B8F1000F16F8012BCD
:100F60005A5403DC95F838100A0719D5EA68431C6F
:100F7000AB612E211154B8F1000F11DD7F1E38B284
:100F80008045E868B8BF47463AB23146184400F099
:100F90002DF9A8693FB23818A861A8EB070068626C
:100FA000E868A9690844002C80F8009003D42B213C
:100FB0004170811C03E02D2141706442811C00209E
:100FC0006A460AE023460A2493FBF4F404EB840601
:100FD000A3EB460302F8013B401C24B2002CF1DCD9
:100FE000012806DC49F02002652A04BF302201F8FE
:100FF000012B48B9302001F8010B07E0401E1DF815
:101000000020303201F8012B0028F7DCE868AA69DB
:101010001044091AE96195F8380000F0140010280E
:101020000DD16969A8694118686A4118E8694118D1
:10103000A86A4118686B8142BCBF411A296205B099
:10104000BDE8F083F8B505460E4617461C4600205D
:1010500074B117F8011BB068A847B06030B1F06AEE
:10106000401CF0620020641EF3D1F2BD4FF0FF304F
:10107000F2BD00007072696E74665F733A20256E6F
:1010800020646973616C6C6F776564007072696E5F
:1010900074663A2062616420256E20617267756D06
:1010A000656E74007072696E74665F733A20626177
:1010B0006420257320617267756D656E7400000091
:1010C0007072696E74665F733A2062616420256C89
:1010D0007320617267756D656E740000000000001A
:1010E000000000006E616E004E414E00696E6600A9
:1010F000494E4600300000000278C9B28A421AB157
:101100001CBF10F8012FF9E718BF0020704700003E
:1011100080B500B906A005490B681BB12222002149
:10112000984701E000F08DFD222002BD1C00002048
:10113000636F6E73747261696E742068616E646C43
:1011400065723A20626164206D6573736167650042
:1011500000F10103810704D010F8011B89B1810758
:10116000FAD10268B2F10131914311F0803F04BF1E
:1011700050F8042FF6E710F8011B11B110F8011B0D
:10118000FBE7C01A70470000C9B2830706D0521EA1
:1011900022D310F8013B9942F7D11FE0083A13D34C
:1011A00002F1040241EA012141EA014150F8043B05
:1011B000121F21BF4B40A3F1013C2CEA030C1CF091
:1011C000803FF3D0C9B2001F083210F8013B521E15
:1011D00028BF91EA030FF8D818BF0120401E7047BE
:1011E0000120704700F030BD0023FBE762B38B079E
:1011F00008D0521E11F8013B00F8013B00F024809A
:101200008B07F6D1830740F0208000BF103A07D348
:1012100030B4B1E83810103AA0E83810F9D230BC38
:10122000530724BFB1E80810A0E8081044BF51F8E4
:10123000043B40F8043BD20724BF31F8022B20F8CE
:10124000022B44BF0B7803707047121F17D35B004B
:1012500009D151F8043B20F8023B1B0C121F20F867
:10126000023BF6D20BE051F8043B00F8013B1B0AAD
:1012700020F8023B1B0C121F00F8013BF3D238BFD1
:10128000121D521E24BF11F8013B00F8013BF8D893
:1012900070470000B3BBD9B1B2F5803F7DD2022ABE
:1012A0001ED98C46B1FBF2F102FB11C31B0443EAC9
:1012B0001043B3FBF2FC02FB1C3380B240EA034351
:1012C000B3FBF2F002FB103240EA0C4000237047FF
:1012D000022A05D98446B0FBF2F002FB10C2704727
:1012E0004AB105D100F0010249085FEA30007047B9
:1012F00000220023704700F0B1BC0B000200002167
:1013000000207047904271EB030CF6D3B3F5803F99
:101310002FD2F0B5B3FA83F7B1FA81F4A7F10F0E2B
:101320003D1B5340CEF1200602FA0EF2F34153402A
:10133000B5F10F0746D80F3C2C444140C4F12006BC
:10134000A040F1414140B1FBF3F603FB1611A2FBB3
:101350000645001BA94102D2761E8018594180EA39
:10136000010221FA0EF362FA0EF200215A403046D1
:10137000F0BD30B4B1FBF3FC03FB1C11A2FB0C4528
:10138000001BA94103D2ACF1010C8018594130BCBB
:1013900002460B46604600217047B2F1807F65D35C
:1013A000F0B5B2FA82F7B1FA81F4C7F10F063D1B2E
:1013B00022FA06F307F1110EF24120355A40B5F139
:1013C0000F07B8D94140C4F12006A040F141414087
:1013D000B1FBF3FC03FB1C11A2FB0C45001BA94154
:1013E00003D2BCF1010C801859410F2F12D30F3FCB
:1013F000C90341EA5041B1FBF3F603FB1611A2FB0E
:101400000645D4EBC030A94102D2761E801859415E
:1014100046EACC3C07B34140C7F12006B840F14151
:101420004140B1FBF3F603FB1611A2FB0645001B7E
:10143000A94102D2761E8018594180EA010221FAA0
:101440000EF3C7F1200462FA0EF20CFA07F05A40CC
:101450002CFA04F13043F0BD80EA010221FA0EF3C8
:10146000002162FA0EF260465A40F0BD8C46B1FB94
:10147000F2F102FB11C31B0243EA1063B3FBF2FC5F
:1014800002FB1C331B024CEA002043EA1063B3FB4F
:10149000F2FC02FB1C331B024CEA002043EA1063FF
:1014A000B3FBF2FC02FB1C331B024CEA002043EAB4
:1014B0001063B3FBF2FC02FB1C324CEA0020002359
:1014C00070470000B0B581EA030C0CF0004C40F20C
:1014D000FF7515EA11541DBF15EA1357AC42AF4210
:1014E00039E0E41923EA455343F48013C90241F07B
:1014F000004141EA505EC7021100A7FB020200282A
:101500004FF00000EEFB01204FF00001E3FB07214C
:1015100018BF42F00102401800214941E3FB0E01CF
:10152000A4F580640F0302D252004041494154F1B6
:1015300001046CDD470872F1004250F1000051EBEC
:101540000451A1F580115CBF41EA0C01B0BD4CEA29
:1015500005510020B0BD05EA1357AC4214BFAF429D
:1015600041E050EA410E1CBF52EA430E02E06146E0
:101570000020B0BD24423C441BD15FEA070EF6D0E8
:10158000090302BF01460020AEF1140EB1FA81F743
:10159000AEEB070401FA07FE0C37C7F1200100FA91
:1015A00007F7C8404EEA000E23EA455343F4801380
:1015B000A2E733F00043B3FA83F704BFB2FA82FE26
:1015C00077440B3FE41BB7F1200E2FBF02FA0EF356
:1015D000BB40C7F1200E22FA0EFE38BF43EA0E03CD
:1015E000BA40641C82E750EA410E14BF52EA430E2F
:1015F0006FF000014FF4001717EB430F8ABF194635
:1016000017EB410FB5E74CEA05510020B0BDD4F10E
:101610000104B4F120070FDAC4F12007520828BFF3
:1016200042F0010210FA07F501FA07F7E1BF2A4379
:10163000E0403843E1400FE0352C98DCC7F120044E
:1016400052EA400220FA07F218BF42F0010231FAD2
:1016500007F0A1400A43002172F1004250F100005E
:1016600051EB0C01B0BD000010B5144600F002F8BB
:10167000226010BDC1F30A5343B14A0012F5001FA6
:1016800028D2A3F2FE32A1EB0251704750EA410C7E
:1016900020D001F0004C31EA0C01B1FA81F204BF14
:1016A000B0FA80F3D2180B3AB2F120032CBF00FA43
:1016B00003F1914041EA0C013EBFC2F1200C20FA37
:1016C0000CF319439040524240F2FD33D21A01EB21
:1016D00003517047002270474FF4001C1CEB410F70
:1016E00094BF1CEB430F09E041EA030C50EA4C0C99
:1016F00052EA0C0C03D2994208BF9042704714BFC3
:101700008B428242704700004FF4001C1CEB410FDB
:1017100094BF1CEB430F09E041EA030C50EA4C0C68
:1017200052EA0C0C03D28B4208BF8242704714BFAE
:101730009942904270470000124254D440F2FF7C1C
:101740001CEA11530FD0634531D09B1863453CBF51
:1017500001EB0251704701F0004141EA0C510020B9
:10176000AFF30080704750EA410320D001F0004CF5
:1017700091EA0C011CD0B1FA81F30B3B9A420DD9CE
:10178000D21A994051EA0C01C3F1200C20FA0CFC4A
:1017900061449840531C40F2FF7CD7E7914041EAF6
:1017A0000C01C2F1200C20FA0CF319439040704751
:1017B000B0FA80F31533202BE0D3202AEED3203A61
:1017C000203B9A4209D9D21A00FA03F141EA0C01EE
:1017D0000020531C40F2FF7CB8E700FA02F141EA16
:1017E0000C0100207047524240F2FF7C1CEA11536A
:1017F0000DD06345DBD0B2EB030C3CBFA1EB025133
:1018000070470CF1010221EA035141F4801150EAC2
:10181000410CCCD001F0004C352A27DC30B481EAF1
:101820000C01B2F1200309DAC2F12003044601FAE7
:1018300003F5D0402843D1409C400CE0C3F1200286
:10184000450020FA03F418BF44F0010421FA03F024
:1018500091400C43002174F1004550F1000051EB20
:101860000C01244230BC7FF47BAF704761460020FE
:1018700076E70000C1F30A5340F2FE329B1A14DDF2
:10188000D3F120034FEAE17208DDC90241EA505169
:1018900041F00040D84080185040704703F2E130DA
:1018A00010B1D24382F00040704700207047000022
:1018B000C11768B14840401AB0FA80F29040D21C7B
:1018C000C907C2F5846241EA025202EBD021400509
:1018D0007047000070B44FF0004591EA030F40F1EB
:1018E000BF816B40841A71EB030603D2001BB14128
:1018F000121973414FF4001C1CEB410F34BF7CEBF9
:10190000430442E00C0DA4EB1356352E4FDC45EAA0
:10191000C323DB0A45EAC121C912B6F120050DDD5A
:1019200063FA05F6EB4086EA0305124218BF45F05C
:101930000105C01851F100010CD213E062FA06F55E
:10194000F2405540F3415A40B340F3405A408018AA
:10195000594107D349085FEA30005FEA350528BFDF
:1019600045F0010501F58011420875F1004250F182
:10197000000041EB04514E0016F5001F70BC38BF4B
:1019800070470020090D090570471CEB410F10D26C
:1019900052EA43060BD0BCEB410F05D80C0DAB430C
:1019A000661E342EB6DD02E0AB438018594170BC90
:1019B000704770BC70470000F0B540F2FF7581EAD7
:1019C000030C0CF0004C15EA11541DBF15EA135717
:1019D000AC42AF42E5E0BC41C1F31301C3F31303D2
:1019E000801A994143F4801304D2641E4000494197
:1019F00080185941C90241EA5051B1FBF3F603FB8B
:101A00001611A2FB0675D7EBC020A94102D2761EA3
:101A100080185941C90241EA5051B1FBF3FE03FB62
:101A20001E11A2FB0E75D7EBC020A94103D2AEF167
:101A3000010E80185941890241EA9051760546EA23
:101A40008E2EB1FBF3F603FB1611A2FB0675D7EB46
:101A50008020A94102D2761E80185941C90241EA6C
:101A600050514EEA060EB1FBF3F603FB1611A2FB32
:101A70000675D7EBC020A94102D2761E80185941C5
:101A8000C90241EA5051B1FBF3F703FB1711A2FB66
:101A90000735D3EBC020A94167F100070CBF004216
:101AA00047F0010766F3D5274FEA1E31B80814F551
:101AB000806412DDBD0775F1004250EB0E5051EB12
:101AC000045111F5801F5CBF41EA0C01F0BD4CF0E0
:101AD0007F6141F0E0410020F0BDBD076D0840EAA4
:101AE0000E5041F48011D4F10104B4F120060ADA59
:101AF000C4F120060200E04001FA06F3E140184379
:101B0000B24015430EE0342C13DCC6F1200445EA44
:101B100040056D0820FA06F2154321FA06F0A140AF
:101B20000D43002175F1004250F1000051EB0C0112
:101B3000F0BD00205FEA0C01F0BDCFB992185B4107
:101B4000B3FA83F704BFB2FA82F6BF190B3FB7F1BD
:101B500020062FBF02FA06F3BB40C7F1200622FA87
:101B600006F638BF3343BA401CB1E419641E33E7AC
:101B70007F4231F00041B1FA81F404BFB0FA80F63F
:101B8000A4190B3CB4F120062FBF00FA06F1A140C6
:101B9000C4F1200620FA06F638BF3143A0403C1BB2
:101BA0001AE7AC421ABF05EA1357AF4212E050EAF7
:101BB00041061CBF52EA4306BFE750EA41073046E0
:101BC00061461CBF41EA0551F0BD52EA430C08BF13
:101BD000C143F0BD00204FF4001616EB410F98BF33
:101BE00016EB430F08BF16EB410F24BFC14305E0BE
:101BF00016EB430F0CBF61464CEA0551F0BD0000E7
:101C0000400D491840EA81200CD2490DA1F58061B0
:101C1000491C40F0004005DBD1F11F0154BFC84012
:101C2000C017704700207047014648B1B0FA80F1F4
:101C30008840C91CC1F58461090501EBD02140052C
:101C40007047012000F0C0B8B1F5807F02D34FF09B
:101C5000FF3070470170012070470000704700009E
:101C6000841A71EB030604D26E40001BB1411219B5
:101C700073414FF4001C1CEB410F34BF7CEB430657
:101C800082E00C0DA4EB1356362E7BDC012E45EAC8
:101C9000C32341DC43EA525312BFD20292025B08D3
:101CA000240545EAC12141EA5051D2EBC0209941B7
:101CB00025D407D1B0FA80F610FA06F162D00020E0
:101CC000203608E0B1FA81F6B140C6F1200220FAD0
:101CD00002F21143B0404FEAF474B4EB465434F0CE
:101CE00001064FEA74040AD8D6F50016760D04F002
:101CF0000044F04061FA06F25040F1404840C00A0A
:101D000040EA415021F0004128BF5FEA500550F100
:101D1000000044EBD12135E0DB0A45EAC121C90AC4
:101D2000B6F120050EDD42EA0242120CC5F1200692
:101D300003FA06F6EB4042EA06056D42984161F16E
:101D400000010DE062FA06F5F240554063FA06FC28
:101D500082EA0C02F3405A406D42904161EB03016C
:101D600011F4801F05D1641E620502D06D00404150
:101D7000494121F48011430875F1004350F10000FE
:101D800041EB045170BC70471CEB410F15D223F09E
:101D9000004352EA43060BD04FEA4C0CBCEB410F18
:101DA00004D80C0D661E342EB7DDEBE7801A99417E
:101DB00050EA410608BF0021E4E708BF1CEB430FCF
:101DC00028BF6FF00001DDE780B500F007F8024A98
:101DD00011001820ABBEFBE72600020010B500F092
:101DE00052F802000023DB4300241068984203D01D
:101DF00011000220ABBE14605068984203D0111D40
:101E00000220ABBE546010BDF0B583B0040000F0FA
:101E10003AF8A10047183D680026F643B54216D1AE
:101E200000F01AF83D68B5420FD100BF09A000903C
:101E3000002C01D1002000E004200190032002903A
:101E400069460120ABBE05003D6000F014F8280093
:101E500003B0F0BD3A7474000C480121BFF35F8FEA
:101E6000D0E84F3FC0E8421F002AF9D1BFF35F8F8F
:101E7000002BF3D170470548BFF35F8F002101703D
:101E8000BFF35F8F704702487047000020000020BA
:101E9000100000202DE9F843040017D02078B54E3B
:101EA000C10741D5B06800F00C00042807D0B06825
:101EB00000F00C0008280BD17068410208D5316889
:101EC000880331D56068002840F0B68001204FE1DA
:101ED0006068B0F5803F06D0B0F5A02F316807D11B
:101EE00041F480213160306840F48030306006E099
:101EF00021F480313160326822F4802232606068DF
:101F000068B100F03FF905463168880300F194801C
:101F100000F038F9401B6528F6D3032028E100F0D3
:101F200031F905463068810340F1868000F02AF9D6
:101F3000401B6528F6D3F0E700F024F9401B022887
:101F400040F2A780E9E7E06870B10121396000F054
:101F500019F905463068810700F1CB8000F012F9CD
:101F6000401B0228F6D9D8E7386000F00BF9054687
:101F70003068810763D500F005F9401B0228F7D9C6
:101F8000CBE7086000F0FEF80546706F810775D555
:101F900000F0F8F8401B0228F7D9BEE70528306F9B
:101FA00006D140F004003067306F40F0010005E0DA
:101FB000400840003067306F20F00400306741F285
:101FC0008938A06868B100F0DDF88146306F81077C
:101FD00000F19C8000F0D6F8A0EB09004045F5D355
:101FE0009BE700F0CFF88146306F810740F18E808B
:101FF00000F0C8F8A0EB09004045F5D38DE700F0EC
:10200000C1F8401B022840F2968086E700F0BAF83B
:10201000001B022840F2A7807FE70020386600F00E
:10202000B1F804463068810140F1A18000F0AAF8BF
:10203000001B0228F6D970E720784F4F81071BD587
:10204000B06810F00C0F09D0B06800F00C00082840
:102050007FF479AF706841023FF575AF316888074A
:1020600003D5E06801287FF431AF3168206921F0A1
:10207000F80141EAC0013160217808070DD5606997
:102080003E4900283FF47DAF01220A6000F07AF853
:102090000546706F81077FF54FAF217848073AD525
:1020A000306C0025C1000AD400950125306C40F049
:1020B00080503064306C00F0805000900098DFF861
:1020C000C080D8F80010C8051BD4D8F8000040F430
:1020D0008070C8F8000000F055F88146D8F800106C
:1020E000C8050ED400F04EF8A0EB09000228F5D97F
:1020F00013E73068216920F0F80040EAC100306041
:10210000BAE7A06801287FF449AF4DE71DB1306CF4
:1021100020F080503064A06948B3B16801F00C0130
:1021200008293FF4D3AE02287FF477AF0020386649
:1021300000F028F80546306881013FF560AFE1699D
:10214000206AA26A0143606A520841EA8011521E65
:10215000E06A41EA024141EA0061716001213966A9
:1021600000F010F80446306881017FF54FAF002081
:10217000BDE8F2830038024000004742800E47422B
:102180000070004001484068704700BF0000002018
:102190002DE9F84304000F4677D0404E306800F038
:1021A0000F00B84202D200F072F86ED120683C4DA8
:1021B000810712D5400703D5A86840F4E050A86015
:1021C0002178080703D5A86840F46040A860A96892
:1021D000A06821F0F0010143A9602078C1074CD527
:1021E0006068012802D129688A0305E0022818BF27
:1021F000032803D129688A0103D446E02A6891079D
:1022000043D5A968890840EA8100A86041F289396C
:10221000FFF7B8FF8046A868616800F00C00B0EBDB
:10222000810F2AD0FFF7AEFFA0EB08004845F2D39C
:10223000032020E02078410705D5A968E06821F453
:10224000E0510143A9602078010706D5A8682169FB
:1022500020F4604040EAC100A86000F027F8AA68B6
:102260001049C2F30312895C0F4AC8401060002075
:1022700000F048F80020BDE8F283306800F00F005D
:102280008742D7D200F003F8D4D00120F3E73770AB
:10229000316801F00F01B94270470000003C024074
:1022A000003802406C2600080C00002018B5124CC3
:1022B000606800F00C00042802D0082802D019E061
:1022C0000E4812BD00232268206841022068C0F336
:1022D00088104CBF09490A4902F03F02A1FB0001E6
:1022E000FEF7D8FF2168C1F30141491C4900B0FB4A
:1022F000F1F012BD024812BD0438024000127A000B
:102300000024F40038B50D4D0D4A297804464FF4E9
:102310007A70B0FBF1F11068B0FBF1F000F04BF80F
:1023200050B9102C08D2002221464FF0FF3000F0A7
:1023300025F8AC60002032BD012032BD0000002035
:102340000C0000200901020081B002D4244881540D
:1023500005E0244802F00F02104400F8041C01B00C
:102360007047214A13684FF6FF0100020B4000F44A
:10237000E06018431D4908431060704738B51A4B98
:102380001C68C4F30223C3F10704052C28BF0424EE
:102390001D1D072D34BF0023DB1E012505FA04F4A3
:1023A000641E2140994005FA03F35B1E1A40114355
:1023B000BDE83440C6E710B5401EB0F1807F01D3C0
:1023C000012010BD0A4C60600F214FF0FF30FFF775
:1023D000B9FF0022A26007202060002010BD00008D
:1023E00000E400E018ED00E00CED00E00000FA056C
:1023F00010E000E07CB500F08BF800F02FF8002032
:1024000000903A4CDFF8E8003DA50168394E41F0F4
:1024100080010160026802F08002009200220099AF
:102420000092036843F001030360006800F00100BC
:10243000009000983068401C3060FFF7A3FE024611
:102440003168284600F07EF84FF40051204600F035
:102450008DF84FF47A7000F093F8EBE780B592B006
:1024600006A8302100F0A0F801A8142100F09CF883
:10247000002000902048016841F080510160002157
:10248000006800F08050009000981C4800910121E5
:10249000026842F4804202604FF48032006800F427
:1024A000804000900098069102200C904FF480012B
:1024B0000D9104200E9032210F91022010900421E2
:1024C0000792119106A8FFF7E5FC0F200221019069
:1024D000029100204FF48051039004910590012156
:1024E00001A8FFF755FE13B000BD00000008024030
:1024F0003038024018000020403802400070004090
:102500002564207469636B203A2025640D0A00005D
:1025100080B50B48016841F400710160026842F423
:1025200080620260016841F4807101600320FFF75E
:1025300018FF0020FFF7E6FE00F03AF8002002BD89
:10254000003C02400EB4C0B5024603A80021019031
:10255000009101AB0121044878440C30FDF714FED2
:1025600006BC5DF810FB00BF6B02000081B0426941
:102570000A408A4208BF0904816101B07047000027
:1025800038B50446FFF7FEFD14F1010F054602D0F1
:10259000044801786418FFF7F5FD401BA042FAD308
:1025A00031BD00BF00000020002200F01DB8000077
:1025B00081B00020009000220A48416841F4804127
:1025C0004160416801F480410091009900920368E4
:1025D00043F080530360006800F080500090009842
:1025E00001B070474038024000B500BF1300964666
:1025F0009446103928BFA0E80C50FAD85FEA417C15
:1026000028BF0CC048BF40F8042BC90728BF20F8DA
:10261000022B48BF00F8012B00BD00000E480168E6
:1026200041F47001016000220C49086840F001008B
:1026300008608A600A480A6802400A600022094865
:102640004860086820F480200860CA604FF000608D
:10265000054908607047000088ED00E0003802403E
:10266000FFFFF6FE1030002408ED00E0000000003F
:1026700000000000010203040607080930B50168E4
:1026800084684218416802EB5103C9070BD54C44DA
:1026900009E012F9011B12F8015B002904F8015B43
:1026A00005D5491CF9D19A42F3D10C3030BD491EF1
:1026B000F1D5F8E710B5074979441831064C7C4448
:1026C000163404E00A68081D114488470146A142F7
:1026D000F8D110BD4C000000580000004EF68851A3
:1026E000CEF20001086840F470000860BFF34F8F1D
:1026F000BFF36F8F4FF00070E1EE100A704718B50E
:1027000083B00300140000930191029469460520F0
:10271000ABBE01221900201AAFF3008004B010BD37
:102720005DFFFFFF3C0200002000000000000020D1
:1027300080B58DF8000001226946012000F008F8FC
:10274000012802D19DF8000002BD4FF0FF3002BD0C
:1027500080B5002802D400F003F802BD002002BDBD
:1027600080B5002901D1002002BD012801D0022836
:1027700002D100F004F802BDFFF7C1FF02BD30B581
:1027800083B00C0015000120FFF73EFB0090019480
:10279000029569460520ABBE281A03B030BD000083
:1027A00000F00DF8002801D0FFF784FFAFF30080A0
:1027B0000020AFF30080FFF71DFE00F002F80120BB
:1027C000704700F001B8000007463846FFF7FCFAF2
:1027D000FBE738B504460D462846FFF7A9FFA84297
:1027E00018BF0024204632BD7047FEE7FEE7FEE733
:1027F000FEE770477047704700F000B80248416834
:102800000278891841607047000000200148804725
:10281000014800471D2600081D280008AFF300806E
:10282000FFF75CFFFFF7BCFFFFF7FEBFFFF7FEBF40
:10283000FFF7FEBFFFF7FEBFFFF7FEBFFFF7FEBFCC
:10284000FFF7FEBFFFF7FEBFFFF7FEBFFFF7FEBFBC
:10285000FFF7FEBFFFF7FEBFFFF7FEBFFFF7FEBFAC
:10286000FFF7FEBFFFF7FEBFFFF7FEBFFFF7FEBF9C
:10287000FFF7FEBFFFF7FEBFFFF7FEBFFFF7FEBF8C
:10288000FFF7FEBFFFF7FEBFFFF7FEBFFFF7FEBF7C
:10289000FFF7FEBFFFF7FEBFFFF7FEBFFFF7FEBF6C
:1028A000FFF7FEBFFFF7FEBFFFF7FEBFFFF7FEBF5C
:1028B000FFF7FEBFFFF7FEBFFFF7FEBFFFF7FEBF4C
:1028C000FFF7FEBFFFF7FEBFFFF7FEBFFFF7FEBF3C
:1028D000FFF7FEBFFFF7FEBFFFF7FEBFFFF7FEBF2C
:1028E000FFF7FEBFFFF7FEBFFFF7FEBFFFF7FEBF1C
:1028F000FFF7FEBFFFF7FEBFFFF7FEBFFFF7FEBF0C
:10290000FFF7FEBFFFF7FEBFFFF7FEBFFFF7FEBFFB
:10291000FFF7FEBFFFF7FEBFFFF7FEBFFFF7FEBFEB
:10292000FFF7FEBFFFF7FEBFFFF7FEBFFFF7FEBFDB
:10293000FFF7FEBFFFF7FEBFFFF7FEBFFFF7FEBFCB
:10294000FFF7FEBFFFF7FEBFFFF7FEBFFFF7FEBFBB
:10295000FFF7FEBFFFF7FEBFFFF7FEBFFFF7FEBFAB
:102960000001F9000010FC000224F400F8FFF70059
:040000050800281DAA
:00000001FF
